:100000000C9434000C9451000C9451000C94510049
:100010000C9451000C9451000C9451000C94C50C9C
:100020000C9451000C9451000C9451000C94D1107C
:100030000C9451000C9451000C9451000C945100FC
:100040000C9451000C9451000C9451000C945100EC
:100050000C9451000C9451000C9451000C945100DC
:100060000C9451000C94510011241FBECFEFD8E026
:10007000DEBFCDBF11E0A0E0B1E0E2E1F8E202C0F6
:1000800005900D92AA31B107D9F714E0AAE1B1E0C9
:1000900001C01D92AD3CB107E1F70E9453000C94E2
:1000A00007140C9400001092220380E090E00E945C
:1000B000AA13809300018AE191E064EF71E00E944D
:1000C000F80981E393E00E946F070E9403100E94E9
:1000D000670C0E940D0D7894A8950E94840C809363
:1000E000230368EE73E00E94AB0C0E94840C8093A3
:1000F000210360ED77E00E94AB0C0E94840C80939A
:100100002403CBE3D3E011E00F2EFBE4EF2EF3E06A
:10011000FF2EF02DCC24DD246894C1F8CE0CDF1C1A
:10012000AA24BB246894A2F8AE0CBF1CA8950E9418
:100130004E08882309F463C08881882329F480ED60
:1001400097E00E940E06F2CF89E30E9407078823FA
:1001500069F1F60160817181F701808191810E94CE
:100160009108F50191838083009701F30E94120AA0
:1001700090931E0380931D03009721F08330910517
:10018000A9F603C00E947303D1CF0E9442018823C5
:1001900069F28091230368EE73E00E94AB0C8091BA
:1001A000210360ED77E00E94AB0CC0CF8091230368
:1001B0000E94BE0C813041F40E94E701809123032C
:1001C00068EE73E00E94AB0C809121030E94BE0C8C
:1001D000813009F0ABCF809124030E94BE0C8130A6
:1001E00009F0A4CF0E941D0C0E943B0E109319032E
:1001F0008091240362E370E00E94AB0C97CF1882D9
:10020000809124030E94BE0C813009F08FCF0E94A0
:100210001D0C0E943B0E109319038091240362E38E
:1002200070E00E94AB0C82CFF894A89584B7877FCA
:1002300084BFE0E6F0E080818861808388E280838B
:100240007894089520E734E040E050E00E94EF12F7
:10025000DC01CB01AC01BD010197A109B109411538
:10026000510561057105B1F70895DC01CB01AC01C1
:10027000BD010197A109B10941155105610571053C
:10028000B1F70895CF93DF9320914B0330914C0346
:10029000F90152A540910101C9018B969093260363
:1002A00080932503541709F08FC0A2E0B1E0CD017F
:1002B0000996C0912503D0912603FE0151914D91DD
:1002C000F0932603E0932503541709F07DC0A81787
:1002D000B90779F78981823009F46AC0833030F434
:1002E000882351F0813009F06DC008C0813109F4D4
:1002F00063C0823109F066C081E066C02B5C3F4F6D
:100300003093260320932503C0E0E0912503F0916C
:100310002603419150E042955295507F5427407FEB
:1003200054275093280340932703F0932603E09328
:1003300025038C2F60E070E00E94680DE09125039A
:10034000F0912603419150E042955295507F5427F9
:10035000407F54275093280340932703F0932603AC
:10036000E09325038C2F61E070E00E94680DE0911E
:100370002503F0912603419150E042955295507F1C
:100380005427407F54275093280340932703F0932A
:100390002603E09325038C2F62E070E00E94680D35
:1003A000CF5FC03409F0B1CF0E943B0E81E00CC09A
:1003B00081E08093190308C0C901C5960E941D10F1
:1003C00081E002C080E000C0DF91CF910895CF931B
:1003D000DF93C1E3D3E080914B0390914C03BE01C6
:1003E0004CE051E020E038E00E94F108AE014A5FA5
:1003F0005F4F80914B0390914C0361E170E022E1EB
:1004000031E00E947F0980914B0390914C0369E594
:1004100073E549E553E50E94EB0AC0914B03D09187
:100420004C03E1E0F1E0DE019A96CF010A962191BA
:100430002D93E817F907D9F78FEF8CAB8091000166
:100440008DAB809137038EAB809138038FAB809159
:10045000390388AF80913A0389AF80914F0390911F
:10046000500340969093500380934F0380914B0329
:1004700090914C036FE070E00E940B0B80914B0356
:1004800090914C030E94170B80914B0390914C0369
:1004900067E170E00E94B40980914B0390914C0396
:1004A0000E94C00960914F037091500380914B03EB
:1004B00090914C030E945708DF91CF910895CF92FD
:1004C000DF92EF92FF920F931F93CF93DF93D82E7B
:1004D000C92E0F2EFBE4EF2EF3E0FF2EF02D870147
:1004E0000A51104080914B0390914C03B8014CE0AD
:1004F00051E026E038E00E94F108C0914B03D09112
:100500004C03CE010E9690932A038093290381E039
:1005100090E00E944A099F878E87C0912903D0915D
:100520002A0380E098E00E944A099B838A83C09155
:100530002903D0912A0386E08C8384E08D8381E0B7
:1005400090E00E944A099F838E83809129039091B5
:100550002A03F801EC012896DC015296C701449762
:10056000219129931D92E817F907D1F7C7E3D3E04A
:100570008D2D9C2DA0912903B0912A0358969801A6
:10058000265F3F4F4991FD013A974083FC0141911D
:10059000CF014D93C217D307A9F760914F03709114
:1005A0005003645E7F4F7093500360934F038091BC
:1005B0004B0390914C030E945708DF91CF911F91FC
:1005C0000F91FF90EF90DF90CF900895CF93DF933E
:1005D00080914B0390914C039C01225F3F4F3093DD
:1005E0002A0320932903AC014A5E5F4F61E373E065
:1005F00026E038E00E94F108C0912903D0912A0337
:1006000081E090E00E944A0999838883C091290380
:10061000D0912A0380E098E00E944A099B838A8354
:10062000C0912903D0912A0386E08C8384E08D83D6
:1006300082E090E00E944A099F838E83E091290323
:10064000F0912A03DF011896729686E09D919193AE
:100650008150E1F7A0912903B0912A031E968C9155
:100660001E9758968C9358971F968C911F97599662
:100670008C93599750968C9150975A968C935A9781
:1006800051968C9151975B968C935B97E1E3F3E0E5
:100690001896CF01069621912D93E817F907D9F7FF
:1006A000E0912903F0912A03809137038687809196
:1006B0003803878780913903808B80913A03818B3F
:1006C00060914F0370915003645E7F4F70935003AD
:1006D00060934F0380914B0390914C030E94570805
:1006E000DF91CF910895E0914B03F0914C03CF013E
:1006F0000E9690932A038093290396A18091370345
:10070000981789F497A180913803981761F490A500
:1007100080913903981739F491A580913A0398177D
:1007200011F40E94E6020895CF93DF93EC0181E07B
:100730008AA78BA786E08CA71DA68091360390E040
:10074000A0E0B0E08EA79FA7A8ABB9AB1BAA1AAADE
:100750001DAA1CAAFE01EE5BFF4F84E0DF011C977F
:100760001C92DF0118971C92DF0114971C921192C2
:100770008150A1F7E1E3F3E0DE01AA5BBF4FCF01B7
:10078000069621912D93E817F907D9F7FE01E45B4E
:10079000FF4F8AE011928150E9F7FE01EA5AFF4FBC
:1007A00080E411928150E9F7FE01E80FF11DEA564D
:1007B000FF4F10828F5F8038B9F7CA5EDE4F83E645
:1007C00092E8A3E5B3E688839983AA83BB838091EB
:1007D0004F039091500380519F4F9093500380930B
:1007E0004F03DF91CF9108950F931F93CF93DF9322
:1007F000E0914B03F0914C03CF010E9690932C03A4
:1008000080932B03828D80934703838D80934803CD
:10081000848D809349030BE413E0858D80934A0314
:10082000E8016A97CF01BE014CE051E020E038E0DA
:100830000E94F10880914B0390914C0361E170E0BC
:1008400042E153E022E131E00E947F0980914B03B5
:1008500090914C0364E470E043E450E00E94EB0AA2
:1008600080914B0390914C030E94940320914B0381
:1008700030914C03F901E65EFE4F85E38083F90178
:10088000E55EFE4F81E08083F901E45EFE4F93E078
:100890009083F901E35EFE4F9DE39083F901E25EF0
:1008A000FE4F97E09083F901E15EFE4F8083DE0109
:1008B000F901E05EFE4FC80144974D914193A8179E
:1008C000B907D9F7F901EA5DFE4F82E38083F901A8
:1008D000E95DFE4F84E08083F901E85DFE4F909171
:1008E0002D039083F901E75DFE4F90912E039083D5
:1008F000F901E65DFE4F90912F039083F901E55DCC
:10090000FE4F909130039083F901E45DFE4F96E332
:100910009083F901E35DFE4F8083F901E25DFE4FB4
:10092000809147038083F901E15DFE4F8091480388
:100930008083F901E05DFE4F809149038083F901D6
:10094000EF5CFE4F80914A038083F901EE5CFE4F1D
:100950008CE08083F901ED5CFE4F83E08083F90138
:10096000EC5CFE4F84E48083F901EB5CFE4F86E48F
:100970008083F901EA5CFE4F809136038083295C15
:100980003E4F8FEFF901808380914F039091500388
:100990004E969093500380934F0380914B03909118
:1009A0004C036EE071E00E940B0B80914B03909121
:1009B0004C030E94170B80914B0390914C0366E10E
:1009C00071E00E94B40980914B0390914C030E9406
:1009D000C00960914F037091500380914B03909137
:1009E0004C030E945708DF91CF911F910F910895FA
:1009F000A0914B03B0914C03FD01E65EFE4F808158
:100A00008F3F09F44DC09F01853339F080E090E0BD
:100A100040E00EC0553361F402C080E090E0820FE8
:100A2000931FFC018281823091F08530C9F525C089
:100A3000820F931FFC0181818F5F480F842F90E00C
:100A4000F901E80FF91F50815F3F21F70895DA9609
:100A50008C91DA9780932D03DB968C91DB978093B2
:100A60002E03DC968C91DC9780932F03DD968C917E
:100A7000809330030E94F403089580912D038093A6
:100A8000370380912E038093380380912F03809346
:100A900039038091300380933A0381E080933B03D4
:100AA00008950F931F93CF93DF930BE413E0E801B6
:100AB0006A9780914B0390914C03BE014CE051E04A
:100AC00020E038E00E94F10880914B0390914C03A4
:100AD00061E170E042E153E022E131E00E947F09F0
:100AE00080914B0390914C0364E470E043E450E048
:100AF0000E94EB0A80914B0390914C030E94940357
:100B000020914B0330914C03F901E65EFE4F85E3E3
:100B10008083F901E55EFE4F81E08083F901E45EA8
:100B2000FE4F8083F901E35EFE4F9DE39083F90160
:100B3000E25EFE4F97E09083F901E15EFE4F808315
:100B4000DE01F901E05EFE4FC80144974D914193EB
:100B5000A817B907D9F7F901EA5DFE4F1082F9012C
:100B6000E95DFE4F1082F901E85DFE4F1082F90148
:100B7000E75DFE4F1082F901E65DFE4F8CE0808359
:100B8000F901E55DFE4F83E08083F901E45DFE4FEE
:100B900084E48083F901E35DFE4F86E48083F901FC
:100BA000E25DFE4F809136038083215D3E4F8FEFE3
:100BB000F901808380914F03909150034696909362
:100BC000500380934F0380914B0390914C0366E058
:100BD00071E00E940B0B80914B0390914C030E949B
:100BE000170B80914B0390914C036EE071E00E94D3
:100BF000B40980914B0390914C030E94C00960910D
:100C00004F037091500380914B0390914C030E94CD
:100C10005708DF91CF911F910F910895AF92BF9226
:100C2000CF92DF92EF92FF920F931F93CF93DF93B8
:100C3000EC010E94840C082F182FBE010E94AB0CFF
:100C40000E945105CBE4D3E0EE24FF246894E1F840
:100C5000EC0EFD1ECC24DD246894C2F8CC0EDD1E03
:100C60000F2EFBE3AF2EF3E0BF2EF02D0AC0812F35
:100C70000E94BE0C813029F4802F0E94A20C80E0DB
:100C800021C089E30E940707882389F3F701608167
:100C90007181888199810E949108F60191838083F6
:100CA000009739F00E94120A8130910511F40E94D8
:100CB000F804F5018081882321F3802F0E94A20C83
:100CC00080913B03DF91CF911F910F91FF90EF90A7
:100CD000DF90CF90BF90AF9008958EBD0DB407FE0A
:100CE000FDCF0895229A259A239A249853982A9AF8
:100CF0002B9A2B982D9880E58CBD8DB581608DBD8C
:100D00000895CF93C62F2A98962F9F71892B0E9402
:100D10006D0680E00E946D06CC231CF480E00E94EA
:100D20006D068EB52A9ACF910895CF93C42F2A9835
:100D30006F71862B0E946D068C2F0E946D062A9A79
:100D4000CF9108950F931F93CF93DF93EC018B0105
:100D50002A988AE30E946D06209749F080E00E945D
:100D60006D068EB5F80181938F012197B9F72A9A04
:100D7000DF91CF911F910F910895CF93DF9300D012
:100D8000CDB7DEB782E090E0BE016F5F7F4F0E947B
:100D9000A20689819A810F900F90DF91CF910895DB
:100DA0000F931F93CF93DF93EC018B012A988AE76F
:100DB0000E946D06209739F0F80181918F010E9401
:100DC0006D062197C9F72A9ADF91CF911F910F9154
:100DD0000895CF93C82F282F30E02076307080916F
:100DE000110390E02817390781F080EA6FE143E0B2
:100DF0000E949506C076C09311034C2F42954695EC
:100E0000477080E86FE10E949506CF910895CF93D7
:100E1000C82F0E94E90680E06C2F0E948106CF91C6
:100E20000895CF93DF93C82FD62F0E94E90680E460
:100E30006C2F4D2F0E949506DF91CF910895682F5A
:100E400084ED0E94110782ED61E00E9411076FE0BE
:100E500070E080E090E00E9435018AEE0E94070772
:100E600080FDFBCF82ED60E00E94110789ED0E94BA
:100E7000070790E00895CF93DF93C82FD72F0E94E4
:100E800011078C2F8F5F6D2F0E941107DF91CF917B
:100E90000895CF93DF93982FD62FC72F84ED692F16
:100EA0000E94110786ED6D2F0E94110787ED6C2FB0
:100EB0000E94110706C06FE070E080E090E00E94A1
:100EC00035018AEE0E94070780FDF5CFDF91CF91B3
:100ED0000895682F677085E70E9411070895CF93E2
:100EE000DF93EC010E9472068FEF60E04FEF0E94EB
:100EF000950662E370E080E090E00E94220110928B
:100F00000F0310920E0388E060E070E00E943B0740
:100F10008CE060E070E00E943B078AE06EEF79E1D0
:100F20000E943B0784E06FEF79E10E943B0786E077
:100F30006FEF7FE10E943B0781EA8093100388E313
:100F400061EA0E94110788E26FE370E30E943B07A9
:100F500080E369EF77EF0E943B0780EC6DE00E9431
:100F6000110781EC60E00E94110780E862EC42E327
:100F70000E94950686EC62E17CE00E943B0784ECCF
:100F800062E10E9411078AEC6EEE75E00E943B0759
:100F900084EE68810E94110785EE69810E94110725
:100FA00082EE6A810E94110783EE6B810E94110715
:100FB00080EE6C810E94110781EE6D810E94110705
:100FC00080E160E071E00E9449078FE10E94E9063C
:100FD00080E86BE140EC0E94950680E86FE144E018
:100FE0000E94950682E00E9469076AE070E080E056
:100FF00090E00E942201C3E0D0E084E160E878E361
:101000000E94490764EF71E080E090E00E942201B5
:1010100084E160E979E30E94490764EF71E080E0D0
:1010200090E00E942201219741F784E166E774E392
:101030000E94490764E670E080E090E00E9422018F
:10104000DF91CF91089582E70E940707863008F06C
:101050008F5F08956091100361606093100388E3CF
:101060000E9411070895609110036E7F6093100332
:1010700088E30E94110708956091100362606093F5
:10108000100388E30E9411070895609110036D7F9B
:101090006093100388E30E941107089581E10E9484
:1010A0001F0721E0009709F420E0822F08950F9395
:1010B0001F93CF93DF938C01EB010FC08CE10E9453
:1010C000070781FF0AC080E86FE140E80E949506AB
:1010D00080EA6FE140E80E94950680E06FE10E949F
:1010E000810683FDEBCF82E06FEF79E10E943B0741
:1010F000BE016150764E86E00E943B078AE760E0C1
:1011000040E00E949506CE01B8010E94D00680E81A
:101110006FE148E00E949506DF91CF911F910F91FA
:101120000895CF92DF92EF92FF920F931F93CF9388
:10113000DF937C01EB0189E30E9407078823F1F12B
:1011400060910E0370910F0380E00E943B070E94A4
:10115000BD068C0190930F0380930E030E94BD0681
:101160006C010E94BD0687FF0DC0CE010197E6010C
:1011700024978C179D0708F4EC01CE01B7010E945B
:10118000A20602C0C0E0D0E08CE0B8010E943B079C
:101190000150104089E10F3F180730F08CE06EEFEE
:1011A00079E10E943B0704C08CE0B8010E943B0734
:1011B00080E86EE140E40E94950602C0C0E0D0E005
:1011C0008C2F9D2FDF91CF911F910F91FF90EF906A
:1011D000DF90CF900895FC01848595850E947B095E
:1011E0000895EF92FF920F931F93CF93DF938C019B
:1011F000E62EF72EDC011696C42FD52F40E0F7011E
:1012000051917F015D935991FC015193CF014F5F43
:101210004630A9F7C9010E944A09F80195878487D9
:101220008EE090E09093500380934F03DF91CF9135
:101230001F910F91FF90EF9008950F931F93DC0182
:10124000CB010B2F112722273327782F662755270D
:101250004427042B152B262B372B4427582F692F77
:101260007A2F407050707070042B152B262B372B63
:10127000892F9A2FAB2FBB278070A070B070082BDE
:10128000192B2A2B3B2B602F712F822F932F1F910D
:101290000F91089598278927982708950F931F93F2
:1012A000DC01CB010B2F112722273327782F66274C
:1012B00055274427042B152B262B372B4427582F33
:1012C000692F7A2F407050707070042B152B262BCD
:1012D000372B892F9A2FAB2FBB278070A070B0704F
:1012E000082B192B2A2B3B2B602F712F822F932F2A
:1012F0001F910F91089598278927982708950F9394
:101300001F93CF93DF938C0185E4F80186871786BE
:10131000118A108A138A128A158A148A80E8868BA9
:10132000678BC42FD52F822F932FD8015E9620E094
:101330003991FD0134973083FC013191CF013D9308
:101340002F5F2430A9F7F801118E108E80914F0382
:101350009091500344969093500380934F03DF91F4
:10136000CF911F910F910895CF93DF93EC01CB01A3
:1013700044960E944A09998B888BDF91CF910895FA
:10138000CF93DF93EC01198E188EFC013E969C01E1
:101390002E5D3F4F40E050E0BA0181919191A0E075
:1013A000B0E0480F591F6A1F7B1FE217F307A9F728
:1013B000DB01CA01807090700097A105B10589F02A
:1013C000CB01AA27BB2760707070480F591F6A1F96
:1013D0007B1FDB01CA01807090700097A105B105E9
:1013E00079F740955095598F488FDF91CF910895A7
:1013F0009C01E1E3F3E0CF0180961192E817F90731
:10140000E1F730934C0320934B0370934E036093AA
:101410004D0381E393E061E070E046E050E00E941C
:101420009A130895CF93DF93E0914B03F0914C030F
:10143000F0935A03E0935903848595850E947B09B4
:101440009C0188E02030380729F0E8E026303E078C
:1014500009F0A7C081E080935603E0915903F09111
:101460005A0386E091919F3F11F0109256038150EC
:10147000C9F781E080935C03A0915903B0915A03AE
:10148000E1E3F3E0AF01CF0106967D91619176171C
:1014900011F010925C03E817F907B9F790915C031B
:1014A00080915603892B09F47FC0F8E026303F076E
:1014B00009F47DC020914B0330914C03C9010E9675
:1014C000909352038093510381E080935303E90189
:1014D0006E96E7E3F3E0CA010A96DE0161E070E090
:1014E0005D9141915413672FE817F907C9F760938D
:1014F000530381E080935B0341E080E050E09991E9
:101500009F3F09F0452F8F5F8430C9F740935B03FD
:10151000F9018789813041F480915303482B09F008
:1015200049C084E090E054C0813109F046C0C9014F
:10153000829690935E0380935D03F90184A195A147
:101540000E947B0990935503809354038434910542
:10155000D9F4E0914B03F0914C03CF018A9690931C
:101560005803809357038091360390E0A0E0B0E0E9
:1015700046A557A560A971A9481759076A077B07AF
:10158000F9F481E090E024C0F3E589359F07D9F4B0
:1015900090915B0380915303892BC1F484E090E028
:1015A00017C084E090E014C084E090E011C080E0B7
:1015B00090E00EC082E090E00BC084E090E008C0B4
:1015C00084E090E005C084E090E002C083E090E019
:1015D000DF91CF9108950F931F93CF93DF93EC0189
:1015E000CB018A010E944A099BA38AA3C8010E94D9
:1015F0004A099DA38CA31FA21EA280914F03909124
:10160000500308969093500380934F03DF91CF913E
:101610001F910F910895CF93DF93EC01CB010896B2
:101620000E944A099FA38EA3DF91CF9108954F9204
:101630005F926F927F928F929F92AF92BF92CF9262
:10164000DF92EF92FF920F931F93CF93DF934C01A2
:10165000FC0186A197A10E947B092C01F40111A62F
:1016600010A6E4016A96CC24DD24760100E010E0A7
:10167000899199910E947B09A0E0B0E0C80ED91E23
:10168000EA1EFB1E0F5F1F4F0430110589F7F4019E
:10169000C789D0E086A197A10E947B09C80FD91FF6
:1016A000CE01A0E0B0E0C80ED91EEA1EFB1E0F2E30
:1016B000F2E26F2E7724F02D680C791C5201B6945B
:1016C000A794A114B10499F08301C0E0D0E0F8011F
:1016D000819191918F010E947B09A0E0B0E0C80E3A
:1016E000D91EEA1EFB1E2196CA15DB0581F740FEB6
:1016F00011C0C501880F991F860D971DFC018081BF
:10170000918190700E947B09A0E0B0E0C80ED91EC4
:10171000EA1EFB1ED701C601807090700097A105DC
:10172000B105B9F0C701AA27BB272FEF3FEF40E073
:1017300050E0C222D322E422F522C80ED91EEA1EAE
:10174000FB1ED701C601807090700097A105B105FE
:1017500049F7E601C095D095CE010E944A09F401EF
:1017600091A780A7DF91CF911F910F91FF90EF90EC
:10177000DF90CF90BF90AF909F908F907F906F90B1
:101780005F904F9008950F931F93CF93DF930E9424
:101790008A13EC010E948A138C010E948A139C0117
:1017A000CE0160E470E00E940E13C82FC80163E010
:1017B00070E00E940E13FC01C90168E070E00E9415
:1017C0000E1340E0582F5295507F552314F4495F73
:1017D0005F4F5595479555954795559547958C2F4E
:1017E000BF010E94680D0E948A1368EE73E00E9498
:1017F0000E1323E080329207DCF40E948A1360E427
:1018000070E00E940E13C82F60E070E040E050E0EE
:101810000E94680D8C2F61E070E040E050E00E9473
:10182000680D8C2F62E070E040E050E00E94680D8F
:10183000DF91CF911F910F9108958091180360E07F
:1018400070E040E050E00E94680D8091180361E074
:1018500070E040E050E00E94680D8091180362E063
:1018600070E040E050E00E94680D809118036091A4
:101870001603709117034FEF5FE00E94680D80918F
:1018800018038F5F80931803809118038034F0F061
:1018900010921803809116039091170381309105DF
:1018A00079F08130910528F01092170310921603F9
:1018B000089581E090E090931703809316030895B4
:1018C00082E090E09093170380931603089510929E
:1018D000600310925F03E1E6F3E0A1E8B3E0CF011B
:1018E00080962FEF119211922D93E817F907D1F7F7
:1018F00082E08093B0008093700083EC8093B3000B
:1019000084E08093B1000895809181038F3F51F06E
:10191000E2E8F3E021E030E0822FA90191919F3FBE
:1019200051F403C040E050E080E04F575C4F91E03D
:10193000FA01908308952F5F3F4F2031310561F701
:101940008FEF0895E82FFF27E7FDF095EF57FC4F45
:101950008FEF8083089590E0FC01EF57FC4F1082D9
:10196000FC01EE0FFF1FEF59FC4F80915F03909138
:101970006003680F791F71836083089521E833E065
:10198000280F311DF901808108951F920F920FB623
:101990000F9211242F933F934F935F936F938F93E5
:1019A0009F93AF93BF93CF93DF93EF93FF934091B8
:1019B0005F0350916003E1E8F3E0A1E6B3E09F012B
:1019C000205F3F4F61E08081882339F48D919C91A5
:1019D00011978417950709F4608331961296E217E0
:1019E000F30789F780915F039091600301969093CC
:1019F000600380935F03FF91EF91DF91CF91BF91DF
:101A0000AF919F918F916F915F914F913F912F91E6
:101A10000F900FBE0F901F90189586E480937C0066
:101A2000EAE7F0E087EA808380818064808308951C
:101A30006091780020917900922F80E070E0862BF1
:101A4000972BBC0180E090E00E94FE1123E333E37A
:101A500043ED52E40E948C122DEC3CEC4CE456E435
:101A60000E94051127E73EEB4FE154E40E946A1102
:101A70000E94D211862F972F08958091780090911F
:101A80007900392F20E090E0822B932B089582E19A
:101A900084BD15BC83E087BD5D98109280008FE007
:101AA0008093810082E080936F0080E090E19093CA
:101AB000890080938800089585B5816085BD08956B
:101AC00085B5887F85BD85B5806485BD5D980895A1
:101AD0008F7390E080FF5CC061307105F1F0613080
:101AE000710528F06230710509F0BCC03BC0FC01F3
:101AF000EE0FFF1FEE0FFF1FEE0FFF1F8E0F9F1F3A
:101B0000FC01F595E795E355FC4F8081807F952F8B
:101B10009F70892B8083418308959C01220F331F7E
:101B2000220F331F220F331F820F931F9C01359505
:101B300027956DEA73E0FB01E20FF31FCA0192954E
:101B400082958F7089279F70892782832D5F3F4FF1
:101B5000FB01E20FF31F80818F704295407F482B7D
:101B600040830895FC01EE0FFF1FEE0FFF1FEE0FE5
:101B7000FF1F8E0F9F1FFC01F595E795E055FC4F69
:101B80008081807F952F9F70892B8083418308956A
:101B90006130710569F16130710528F062307105BD
:101BA00009F060C03BC09C01220F331F220F331F7E
:101BB000220F331F820F931F9C01359527956DEAE5
:101BC00073E0FB01E20FF31FCA01929582958F70BB
:101BD00089279F70892780832F5F3F4FFB01E20F8A
:101BE000F31F80818F704295407F482B408308957A
:101BF000FC01EE0FFF1FEE0FFF1FEE0FFF1F8E0FFA
:101C00009F1FFC01F595E795E255FC4F8081807F91
:101C1000952F9F70892B8083418308959C01220F0B
:101C2000331F220F331F220F331F820F931F9C017C
:101C3000359527956DEA73E0FB01E20FF31FCA01AA
:101C4000929582958F7089279F70892783832C5F57
:101C50003F4FFB01E20FF31F80818F704295407F61
:101C6000482B40830895E0ECF0E0908195FFFDCF94
:101C70008093C600089529981092940320E0822F43
:101C800090E0880F991F880F991F9C01220F331F26
:101C9000220F331F220F331F820F931F83559C4F38
:101CA000909392038093910310929303E091910398
:101CB000F091920380810E94330E80919103909164
:101CC00092030196909392038093910380919303E2
:101CD0008F5F80939303823148F3209194032F5FA9
:101CE00020939403243058F21092940320E0822F22
:101CF00090E0880F991F880F991F9C01220F331FB6
:101D0000220F331F220F331F820F931F81549C4FCA
:101D1000909392038093910310929303E091910327
:101D2000F091920380810E94330E809191039091F3
:101D30009203019690939203809391038091930371
:101D40008F5F80939303823148F3209194032F5F38
:101D500020939403243058F21092940320E0822FB1
:101D600090E0880F991F880F991F9C01220F331F45
:101D7000220F331F220F331F820F931F815B9B4F54
:101D8000909392038093910310929303E0919103B7
:101D9000F091920380810E94330E80919103909183
:101DA0009203019690939203809391038091930301
:101DB0008F5F80939303823148F3209194032F5FC8
:101DC00020939403243058F21092940320E0822F41
:101DD00090E0880F991F880F991F9C01220F331FD5
:101DE000220F331F220F331F820F931F835C9B4FE1
:101DF000909392038093910310929303E091910347
:101E0000F091920380810E94330E80919103909112
:101E10009203019690939203809391038091930390
:101E20008F5F80939303823148F3209194032F5F57
:101E300020939403243058F2E0ECF0E0808185FF99
:101E4000FDCF0895EDEAF3E08DEC94E01192E817F0
:101E5000F907E1F70895CF93DF930E94600D61E0E9
:101E600070E080E090E00E942201299A61E070E039
:101E700080E090E00E9422011092940380E0C82F3D
:101E800080E0D82FCE01880F991FEC01CC0FDD1F09
:101E9000CC0FDD1FCC0FDD1FC80FD91FC95FDF4F6F
:101EA00010929303CE010E94AA130E94330E219632
:101EB000809193038F5F80939303893098F380918F
:101EC00094038F5F809394038430C8F2109294033C
:101ED00080E0C82F80E0D82FCE01880F991FEC0139
:101EE000CC0FDD1FCC0FDD1FCC0FDD1FC80FD91F9E
:101EF000C05FDF4F10929303CE010E94AA130E948D
:101F0000330E2196809193038F5F809393038930E2
:101F100098F3809194038F5F809394038430C8F288
:101F20001092940380E0C82F80E0D82FCE01880F54
:101F3000991FEC01CC0FDD1FCC0FDD1FCC0FDD1F77
:101F4000C80FD91FC85ADF4F10929303CE010E94C9
:101F5000AA130E94330E2196809193038F5F809382
:101F60009303893098F3809194038F5F8093940357
:101F70008430C8F21092940380E0C82F80E0D82FFC
:101F8000CE01880F991FEC01CC0FDD1FCC0FDD1F98
:101F9000CC0FDD1FC80FD91FC15BDF4F1092930319
:101FA000CE010E94AA130E94330E219680919303C2
:101FB0008F5F80939303893098F3809194038F5FB0
:101FC000809394038430C8F2E0ECF0E0808185FFD8
:101FD000FDCF61E070E080E090E00E942201289A4D
:101FE00061E070E080E090E00E942201289861E0CA
:101FF00070E080E090E00E94220129980E945C0D30
:10200000DF91CF910895549A559A579A219A209A20
:10201000519A509852985A9A80EC8093C20088E165
:102020008093C1001092C5001092C4000E942B0F33
:102030000E94470D0E945C0D0895FF920F931F931D
:10204000CF93DF9300D00F92CDB7DEB78C010D5F39
:102050001F4FFF24F80132974081242F30E02F7367
:102060003070359527953595279535952795359574
:102070002795F80133978081880F880F282B2983B3
:10208000F80131972081822F90E08F7390709595A1
:102090008795959587954295407F842B8A832295D5
:1020A000220F220F207CF80180818F73282B2B8335
:1020B0008F2D8695869590E0BC01660F771F680F7F
:1020C000791F695F7F4FCE01019643E050E00E9487
:1020D000B213F4E0FF0E0C5F1F4F80ECF81609F00E
:1020E000B9CF0E942B0F0F900F900F90DF91CF91DF
:1020F0001F910F91FF900895FF920F931F93CF931D
:10210000DF9300D00F92CDB7DEB78C010D5F1F4F6C
:10211000FF246F2D6695669570E0695F7F4FCE0155
:10212000019643E050E00E949A132981F801339709
:10213000822F8695869580838A81F801329730E0D8
:102140002370307022953295307F3227207F3227DE
:10215000982F92959F70292B20832B81F80131971E
:1021600090E08F709070880F991F880F991F922FA1
:102170009295969596959370892B80832F73F8018D
:102180002083F4E0FF0E0C5F1F4F80ECF81609F679
:102190000F900F900F90DF91CF911F910F91FF90B3
:1021A00008951F920F920FB60F9211242F933F9311
:1021B0004F935F936F937F938F939F93AF93BF934F
:1021C000EF93FF930E94600D5F9A1092850010922A
:1021D000840080911903882321F0289A289810926E
:1021E00019035F980E945C0DFF91EF91BF91AF9131
:1021F0009F918F917F916F915F914F913F912F911F
:102200000F900FBE0F901F9018955058BB27AA270C
:102210000ED048C139D130F03ED120F031F49F3F8B
:1022200011F41EF42EC10EF4E095E7FB24C1E92F52
:102230004AD180F3BA17620773078407950718F02D
:1022400071F49EF562C10EF4E0950B2EBA2FA02D0D
:102250000B01B90190010C01CA01A0011124FF2753
:10226000591B99F0593F50F4503E68F11A16F0404E
:10227000A22F232F342F4427585FF3CF469537954D
:102280002795A795F0405395C9F77EF41F16BA0B12
:10229000620B730B840BBAF09150A1F0FF0FBB1FC0
:1022A000661F771F881FC2F70EC0BA0F621F731F09
:1022B000841F48F4879577956795B795F7959E3F66
:1022C00008F0B3CF9395880F08F09927EE0F9795F4
:1022D000879508950CD0E6C0DED040F0D5D030F020
:1022E00021F45F3F19F0C7C0511110C1CAC0EBD033
:1022F00098F39923C9F35523B1F3951B550BBB27CD
:10230000AA2762177307840738F09F5F5F4F220F79
:10231000331F441FAA1FA9F333D00E2E3AF0E0E872
:1023200030D091505040E695001CCAF729D0FE2FBE
:1023300027D0660F771F881FBB1F26173707480750
:10234000AB07B0E809F0BB0B802DBF01FF27935806
:102350005F4F2AF09E3F510568F08DC0D7C05F3FA8
:10236000ECF3983EDCF3869577956795B795F795EE
:102370009F5FC9F7880F911D9695879597F90895E6
:10238000E1E0660F771F881FBB1F62177307840782
:10239000BA0720F0621B730B840BBA0BEE1F88F791
:1023A000E095089598D088F09F5790F0B92F99271D
:1023B000B751A0F0D1F0660F771F881F991F1AF050
:1023C000BA95C9F712C0B13081F09FD0B1E008953D
:1023D0009CC0672F782F8827B85F39F0B93FCCF3BE
:1023E000869577956795B395D9F73EF49095809546
:1023F000709561957F4F8F4F9F4F0895E89409C066
:1024000097FB3EF490958095709561957F4F8F4F27
:102410009F4F9923A9F0F92F96E9BB279395F6953D
:10242000879577956795B795F111F8CFFAF4BB0FBB
:1024300011F460FF1BC06F5F7F4F8F4F9F4F16C01F
:10244000882311F096E911C0772321F09EE8872FA9
:10245000762F05C0662371F096E8862F70E060E065
:102460002AF09A95660F771F881FDAF7880F9695DE
:10247000879597F9089597F99F6780E870E060E085
:1024800008959FEF80EC089500240A94161617060D
:1024900018060906089500240A9412161306140655
:1024A00005060895092E0394000C11F4882352F0B8
:1024B000BB0F40F4BF2B11F460FF04C06F5F7F4F70
:1024C0008F4F9F4F089557FD9058440F551F59F057
:1024D0005F3F71F04795880F97FB991F61F09F3F11
:1024E00079F087950895121613061406551FF2CF3A
:1024F0004695F1DF08C0161617061806991FF1CF8A
:1025000086957105610508940895E894BB276627B0
:102510007727CB0197F908950BD0C4CFB5DF28F00A
:10252000BADF18F0952309F0A6CFABCF1124EECF78
:10253000CADFA0F3959FD1F3950F50E0551F629F1E
:10254000F001729FBB27F00DB11D639FAA27F00D0C
:10255000B11DAA1F649F6627B00DA11D661F829F33
:102560002227B00DA11D621F739FB00DA11D621F18
:10257000839FA00D611D221F749F3327A00D611D35
:10258000231F849F600D211D822F762F6A2F112417
:102590009F5750408AF0E1F088234AF0EE0FFF1F6A
:1025A000BB1F661F771F881F91505040A9F79E3FA1
:1025B000510570F060CFAACF5F3FECF3983EDCF39B
:1025C000869577956795B795F795E7959F5FC1F7DE
:1025D000FE2B880F911D9695879597F90895629F18
:1025E000D001739FF001829FE00DF11D649FE00D0B
:1025F000F11D929FF00D839FF00D749FF00D659F6C
:10260000F00D9927729FB00DE11DF91F639FB00D6A
:10261000E11DF91FBD01CF011124089597FB092E7B
:1026200007260AD077FD04D00CD006D000201AF47B
:10263000709561957F4F0895F6F7909581959F4F1E
:102640000895AA1BBB1B51E107C0AA1FBB1FA617F9
:10265000B70710F0A61BB70B881F991F5A95A9F74B
:1026600080959095BC01CD0108958F929F92AF9275
:10267000BF92CF92DF92EF92FF92CF93DF93EC0164
:1026800088819981AA81BB810097A105B10521F4B8
:1026900084E299EDABE5B7E0BC01CD012DE133EF6C
:1026A00041E050E00E94CA1349015A0127EA31E48F
:1026B00040E050E00E94EF126B017C01C501B401C3
:1026C0002CEE34EF4FEF5FEF0E94EF12DC01CB01F5
:1026D000C80ED91EEA1EFB1EF7FE08C08FEF9FEF43
:1026E000AFEFBFE7C80ED91EEA1EFB1EC882D98213
:1026F000EA82FB82C6019F77DF91CF91FF90EF9036
:10270000DF90CF90BF90AF909F908F9008950E94E0
:102710003513089586E191E00E9435130895A0E0F5
:10272000B0E08093160190931701A0931801B09325
:1027300019010895DC01CB01FC01F999FECF06C017
:10274000F2BDE1BDF89A319600B40D92415050406F
:10275000B8F70895F999FECF92BD81BDF89A9927EF
:1027600080B50895DC01CB0103C02D910E94BD13FB
:1027700041505040D0F70895262FF999FECF1FBA47
:1027800092BD81BD20BD0FB6F894FA9AF99A0FBE9A
:102790000196089597FB092E05260ED057FD04D00B
:1027A00014D00AD0001C38F45095409530952195EE
:1027B0003F4F4F4F5F4F0895F6F790958095709576
:1027C00061957F4F8F4F9F4F0895A1E21A2EAA1B4C
:1027D000BB1BFD010DC0AA1FBB1FEE1FFF1FA217D1
:1027E000B307E407F50720F0A21BB30BE40BF50BCE
:1027F000661F771F881F991F1A9469F76095709557
:10280000809590959B01AC01BD01CF010895F8948E
:02281000FFCFF8
:102812000444414E4345464C4F4F5200FFFFFFFFD9
:0A282200FFFFFFFFFFFF01000000B1
:00000001FF
